:020000040800F2
:10000000980B012059020008F9700008854B000880
:10001000CD7000086913000825900008000000005A
:100020000000000000000000000000009D0100082A
:10003000111D000800000000F1010008C98000083F
:1000400073020008730200087302000873020008BC
:10005000730200087302000873020008971E00086C
:100060009D1E0008A31E0008A91E000873020008B8
:10007000730200087302000873020008730200088C
:10008000730200087302000873020008F1130008ED
:100090006D13000873020008730200087302000861
:1000A000730200087302000873020008730200085C
:1000B0008D8300089983000873020008730200080A
:1000C000730200087302000873020008730200083C
:1000D00079790008DD8E000873020008818F00081E
:1000E000730200087302000873020008730200081C
:1000F000730200087302000873020008730200080C
:1001000073020008730200081D84000873020008CF
:10011000730200087302000873020008618400087B
:1001200073020008730200087302000873020008DB
:1001300073020008730200087302000873020008CB
:1001400073020008730200087302000873020008BB
:1001500073020008730200087302000873020008AB
:10016000730200087302000873020008730200089B
:100170007302000873020008730200080000000008
:100180007302000873020008DFF80CD000F036FD9F
:1001900000480047D5B20008980B01202B4B196886
:1001A0000868B0E8F04F80F30988BFF36F8F4FF015
:1001B000000080F3118870470000000006480068C6
:1001C000006880F3088862B661B6BFF34F8FBFF353
:1001D0006F8F00DF00BF00BF08ED00E0DFF80C000C
:1001E000016841F470010160704700BF88ED00E0D4
:1001F000EFF30980BFF36F8F144B1A681EF0100FD6
:1002000008BF20ED108A20E9F04F106008B44FF0CD
:10021000500080F31188BFF34F8FBFF36F8F0BF047
:1002200011FE4FF0000080F3118808BC19680868BF
:10023000B0E8F04F1EF0100F08BFB0EC108A80F34A
:100240000988BFF36F8F704700BF00BFA00900206F
:10025000EFF30580704700000648804706480047D6
:10026000FEE7FEE7FEE7FEE7FEE7FEE7FEE7FEE766
:10027000FEE7FEE791810008890100082DE9F05FA3
:100280000546002092469B46884606468146402405
:100290001BE0284641464746224600F030FB5346C5
:1002A0005A46C01A914110D311461846224600F012
:1002B00017FB2D1A67EB01084F462246012000214B
:1002C00000F00EFB17EB00094E41201EA4F10104C3
:1002D000DFDC484631462A464346BDE8F09F40EA07
:1002E00001039B0703D009E008C9121F08C0042AB4
:1002F000FAD203E011F8013B00F8013B521EF9D29B
:100300007047D2B201E000F8012B491EFBD27047C2
:100310000022F6E710B513460A4604461946FFF7D1
:10032000F0FF204610BD00000FB400B58DB010A93D
:1003300009900B9000914FF0FF300A9000200C9034
:1003400005480690054807906A4609A80F9900F0ED
:10035000FFFA0DB05DF814FB6D0900088B09000869
:100360002DE9FF5FD2E901A74FF000089169994696
:100370001446DDF838B0464601988847054659EAE4
:100380000B0005D009E0A169761C01988847054655
:10039000216A284688470028F5D1681C03D05FEA07
:1003A000CA7005D015E04FF0FF3004B0BDE8F09FF3
:1003B0002068011D2160D0F800800AE05FEACA7061
:1003C00001D108F8015BA169761C7F1E019888475E
:1003D0000546002F1ADD681C18D0B9F1000F0DD0AA
:1003E000E81705EBD060421120F01F0059F82210E9
:1003F0002A1A012090400142E0D107E0BBF1000F32
:10040000DCD1216A284688470028D7D0E1690198C5
:100410008847BBF1000F07D1002E05DD5FEACA70E7
:1004200002D1002188F80010A068B84203DDBBF1BA
:10043000000F03D017B16FF00100B6E73046B4E704
:1004400070B5064608F03AFE046805460A22002107
:10045000304600F0ABFA2C6070BD2DE9FE4F8046AF
:1004600081EA0300C00F0C46009021F0004123F008
:100470000045B8EB0200A94105D24046214690460E
:100480001C460B46024623F00040104347D0270D80
:10049000C7F30A00C3F30A510290401A01904028A2
:1004A0006BDAC3F3130040F4801B0098924620B12E
:1004B0000023D2EB030A63EB0B0B01985946C0F102
:1004C0004002504600F00CFA06460D46504659468A
:1004D000019A00F024FA10EB08006141002487EA39
:1004E000115284EAE7731A4340D0009A62B3019A2A
:1004F000012A4FEA075215DC001B61EB02014FF0A5
:10050000004202EA0752CDE90042001C41F5801189
:1005100032462B4600F0C8FA03B0BDE8F08F4046E3
:100520002146F9E7001B61EB0201001C41F5801335
:1005300000185B412018A2F5001747EB030140EAC1
:10054000D570B6196D4111E06D084FEA360645EADF
:10055000C0754FEA0752001B61EB0201001C41F518
:10056000801149084FEA30000019514132462B46AC
:1005700003B0BDE8F04F00F088BA009801224000B7
:100580000023D0EB020263EBE073009821464FEAB0
:10059000E074B8EB000061EB0401E9E783F000438D
:1005A0005BE781F0004158E72DE9FE4F81EA030443
:1005B00004F0004421F0004100944FF0000B23F0C0
:1005C000004350EA01045ED052EA03045BD0C3F357
:1005D0000A54C1F30A552C44A4F2F3340194A0FB4D
:1005E0000254C1F3130141F48011C3F3130343F424
:1005F000801301FB024400FB034E840A970A44EA7D
:10060000815447EA8357A4FB076802958D0A05FBCE
:1006100007854FEA932C04FB0C542705029D4FEAF3
:10062000065847EA1637B5EB08056EEB070C870E40
:10063000920E47EA811742EA8312A7FB0201B6EB4A
:100640000B0164EB00042B0D43EA0C335E1844EB02
:100650001C50DA465146E7FB0201C5F313044FEA8A
:100660000B3343EA14534FEA0432019C43EA060376
:10067000A4F10C040294009CCDE900B400F014FA3B
:1006800003B0BDE8F08F00200146F9E72DE9F04DF9
:1006900081EA030404F0004B21F0004514464FF0BA
:1006A000000A23F0004150EA050220D054EA01027A
:1006B0001DD0C5F30A570246C5F31303C1F3130057
:1006C000C1F30A5640F4801543F48013A7EB0608E3
:1006D000101BD64608F2FD3873EB050002D308F173
:1006E000010801E092185B41B8F1000F03DA002025
:1006F0000146BDE8F08D00204FF480110646844687
:100700000EE0171B73EB050705D3121B63EB050304
:1007100006434CEA010C49084FEA300092185B414D
:1007200050EA0107EDD152EA030012D082EA040038
:1007300083EA0501084305D0101BAB4106D2012214
:10074000002306E000224FF0004302E06FF00102B8
:1007500053101AEB06004CEB085110EB0A0041EB6A
:100760000B01BDE8F04D00F090B90EB540F23341F9
:1007700002910021CDE900110A460B4600F094F9E0
:1007800003B000BD70B5C1F30A5201F0004500246A
:10079000C1F3130140F2FF3341F480119A4201DAB0
:1007A000002070BD40F233439A42A2F2334203DC90
:1007B000524200F0A4F800E090402C43F1D04042B7
:1007C00070BDC1F30A5210B5C1F3130140F2FF33FB
:1007D00041F480119A4201DA002010BD40F2334307
:1007E0009A42A2F2334203DC524200F088F810BD74
:1007F000904010BD00F0004230F000400AD0C10D22
:1008000001F56071C0F3160042EA0151C2084007C9
:1008100011437047002001467047000030B5041EA8
:1008200071F1000404DB4FF00044404264EB01012D
:10083000141E73F1000405DB1C464FF000435242C6
:1008400063EB04038B4208BF824230BD30B5041E07
:1008500071F1000404DB4FF00044404264EB0101FD
:10086000141E73F1000405DB1C464FF00043524296
:1008700063EB0403994208BF904230BD01F000438E
:1008800030B421F0004150EA010206D00A0DA2F571
:100890006072C1F31301002A02DC30BC00207047F3
:1008A000440F44EAC104C100E01830BC00EBC25060
:1008B00000F0B4B830B50B460146002020220124D8
:1008C00009E021FA02F59D4205D303FA02F5491B1E
:1008D00004FA02F52844151EA2F10102F1DC30BD34
:1008E000202A04DB203A00FA02F1002070479140F0
:1008F000C2F1200320FA03F3194390407047202AE5
:1009000004DB203A21FA02F00021704721FA02F3B9
:10091000D040C2F120029140084319467047202A76
:1009200006DBCB17203A41FA02F043EAE07306E017
:1009300041FA02F3D040C2F1200291400843194627
:100940007047000002681144137801601846704730
:10095000D1600449516104491162002111611146BD
:1009600000F06CB945090008290C0008426842B142
:10097000016811F8013B23B1521EC0E9001218466C
:1009800070470121C160881E704742685AB1C36830
:10099000016843B983688B4205D0491E521CC0E9E7
:1009A0000012002070474FF0FF3070472DE9F047EC
:1009B00091460F4680460446002614F8015B2DB18F
:1009C00000F02EF90068405DC007F6D12B2D02D053
:1009D0002D2D18D0641E4A463946204600F0C4FA30
:1009E00027B13968A14201D1C7F8008071054FF0E5
:1009F00002040BD54042002803DD08F05FFB0460D1
:100A0000A007BDE8F08746F48066E4E70028F8DA3E
:100A100008F054FB04606FF00040F2E70029A8BF23
:100A20007047401C490008BF20F00100704710B417
:100A3000B0FA80FC00FA0CF050EA010404BF10BCCC
:100A4000704749B1CCF1200421FA04F411FA0CF1F9
:100A500018BF012121430843A3EB0C01CB1D4FEA32
:100A600000614FEA102042BF002010BC704700EB2D
:100A7000C35010440029A4BF10BC7047401C49005B
:100A800008BF20F0010010BC704710B5141E73F1B0
:100A9000000408DA401C41F1000192185B411A433E
:100AA00001D120F0010010BD2DE9F04D92469B468A
:100AB00011B1B1FA81F202E0B0FA80F22032904630
:100AC000FFF70EFF04460F4640EA0A0041EA0B0119
:100AD00053465A46084313D0114653EA010019D031
:100AE000C8F140025046FFF70AFF05460E46504641
:100AF00059464246FFF7F4FE084305D0012004E0C2
:100B000020463946BDE8F08D0020054346EAE076F0
:100B10002C4337430A986305E40AA0EB080000223F
:100B2000FD0A44EA47540A3002D500200146E9E7AD
:100B3000010510196941DDE9084500196941BDE861
:100B4000F04DA2E72DE9F041054621F000400C46AA
:100B5000284309D0C4F30A5040F23341884205DDEE
:100B600028462146BDE8F0812846FBE740F2FE31E9
:100B7000884210DC0CDB4FEA043040EA155050EAA2
:100B8000053105D0104804F0004101430020E9E799
:100B900000200146E6E7A0F233404642C6F140029B
:100BA00028462146FFF79CFE0746884628462146F0
:100BB0003246FFF7A4FE43463A46FFF766FF324649
:100BC000BDE8F041FFF78CBE0000F03FC1F30A52D0
:100BD000C1F3130140F2FF3341F480119A4202DA6B
:100BE00000200146704740F233439A42A2F233425A
:100BF00002DC5242FFF783BEFFF772BE064C074D80
:100C000006E0E06840F0010394E8070098471034DC
:100C1000AC42F6D3FFF7BCFA0CDE00082CDE00086D
:100C20000048704700DE000810B50446FFF7F8FFE3
:100C30000068005D00F0010010BD00002DE9F34FD9
:100C40008BB04FF0000801F10C000C464FF0010B87
:100C500046460DF1080A019062690121019890470A
:100C6000051E2DD0252D2CD0216A8847C0B1626980
:100C7000012101989047216A88470028F7D1411E39
:100C800062690198904700E0761CA1690B9888473B
:100C9000216A88470028F7D1E1690B988847DBE78C
:100CA000A1690B9888470746A84201D1761CD3E773
:100CB000E1690B9888477F1C02D1B8F1000F6FD013
:100CC00046E1002762693D463946019890472A2847
:100CD00004D162690121019890470125DFF88492CF
:100CE0006269012101989047A0F130010A290AD2D6
:100CF0004F45E5DC07EB870100EB4107303FDFD4D0
:100D000045F01005ECE7E90601D46FF000476C28C8
:100D10000AD04C2814D0682815D06A280DD0742821
:100D20001CD07A281AD01DE06269012101989047F1
:100D30006C2802D045F0040514E045F002050DE0F2
:100D400045F020050AE06269012101989047682872
:100D500002D045F0080505E045F40065626901210F
:100D600001989047C4E9015765283DD019DC5828FF
:100D70007AD00CDC452837D004DC252826D0412841
:100D800031D131E046282FD047282CD12CE05B28E8
:100D900077D0612828D063287CD0642823D15AE0FA
:100DA000D0E06F2848D008DC66281DD067281BD00B
:100DB000692821D06E2816D127E0702845D07328E5
:100DC00068D0752847D078280DD14DE0A1690B98DF
:100DD0008847054625283FF469AFE1690B988847A5
:100DE0006D1C3FF46AAFB3E023466A466FF0010022
:100DF0000B99AFF300809EE045F040006060A807CB
:100E000023464FF0000236D43EE0E8077FF447AFB8
:100E10002068011D21600068290501D506701BE7C7
:100E2000290701D5068017E7A90703D5F117C0E9FF
:100E3000006111E706600FE745F040006060A80719
:100E400023464FF0080216D41EE040F60E0125EAB4
:100E50000100606016E045F040006060A80723468E
:100E60004FF00A0207D40FE045F040006060A80789
:100E700008D5234610226FF001000B99AFF30080D4
:100E800059E007E0234610226FF001000B99AFF301
:100E9000008050E04FF000094F464B46632802D0D7
:100EA0005B2806D040E0E80601D40120A0600127BD
:100EB0003AE062690121019890475E2805D14FF020
:100EC00001096269494601989047216939B90021B1
:100ED0000A46534643F82120491C0829FADBB0B3DF
:100EE000216969B9C11700EBD16253110AEB830183
:100EF00022F01F02821A01200B68904003430B600E
:100F000062690121019890475D28E8D1B9F1000F8D
:100F100009D00020514651F82020D24341F820202A
:100F2000401C0828F7DB02AB224600976FF0010057
:100F30000B99FFF715FA00280CDA401C08D1BBF119
:100F4000000F05D04FF0FF300DB0BDE8F08FFFE788
:100F50004046F9E7E90701D108F1010806444FF0DE
:100F6000000B79E6CCCCCC0C2DE9F05F8246007802
:100F7000002715468B460AF10104B946302801D0F6
:100F80009DB113E014F8010B0127782803D05828ED
:100F900001D045B10AE00DB1102D07D10027102571
:100FA00014F8010B02E0082500E00A250026B046EF
:100FB0000EE005FB080005FB06F1012701EB1046DA
:100FC0001FFA80F8B6F5803F00D3B94614F8010B3C
:100FD000294600F018F80028EBDABBF1000F05D025
:100FE0000FB1641E00E05446CBF80040B9F1000F89
:100FF00006D008F063F802210160C81EBDE8F09F2A
:1010000048EA0640FAE73A2800D2303820F02002B9
:10101000412A01D3A2F13700884201D34FF0FF30BB
:10102000704770B58C1810F8015B15F0070301D1FB
:1010300010F8013B2A1106D110F8012B03E010F83B
:10104000016B01F8016B5B1EF9D12B0705D400235E
:10105000521E0DD401F8013BFAE710F8013BCB1A00
:10106000921C03E013F8015B01F8015B521EF9D5F5
:10107000A142D8D3002070BD454910B54A6822F47A
:1010800040324A604A6843681A434A6001684A68C5
:1010900022F480724A6001684A68036942EA0322C6
:1010A0004A6001684A6822F040724A6001684A68F2
:1010B00083681A434A6001688A6822F400628A6081
:1010C00001688A68C3681A438A60816A6FF0706237
:1010D000D14201688A6822F070628A6001688A6879
:1010E0000CD0836A1A438A6001688A6822F04052F1
:1010F0008A6001688A68C36A1A4301E022F040529C
:101100008A6001688A6822F002028A6001688A683F
:10111000836942EA43028A60016A002901684A68D9
:101120000FD042F400624A6001684A6822F46042CB
:101130004A6001684A68174C436A04EB43331A4318
:1011400001E022F400624A600168CA6A22F4700277
:10115000CA620168CA6A838B0F4C04EB03531A43BB
:10116000CA6201688A6822F400728A6001688A682B
:10117000036B42EA43228A6001688A6822F4806233
:101180008A6001688A68406942EA8020886010BDF0
:101190000023014000E0FFFF0000F0FF1FB5002525
:1011A00001273E46A846009501950295039500F05B
:1011B0007FFE08F067FC604CEA460DF1080904F177
:1011C000700B00235A1E1946A0690AF027FF012858
:1011D000F7D15A48007810B900F0C2FEA081A0896A
:1011E00020B1A08956490988401A00E04046A081F4
:1011F000B4F90C00002803DDB4F90E00002807DB69
:10120000B4F90C0000282ADAB4F90E00002826DD13
:101210005AF82510B4F90C205046B4F90E301A448F
:1012200002EB820211444AF82510B4F90C10B4F90B
:101230000E20002900DA4942002A00DA5242114405
:1012400050F8262011444AF8261059F82500401C71
:10125000A0F5407149F82500E73900D10127A089A0
:10126000E081012FADD16069D0B359F82500002885
:1012700037DDE16B002934DD5AF825202E4F92FB33
:10128000F0F2683747F825205AF8261091FBF0F065
:1012900006F0F0FE84ED110A57F8250041F288317E
:1012A000014442F2117291420ED36189491C89B204
:1012B000618132290AD9234A234BC2F86080012276
:1012C0001A60A4F80A8001E0A4F80A8040F2DC5118
:1012D000884202DC494288420BDA47F8251008E0D0
:1012E00014E01549683141F82580B4F912004BF833
:1012F00025001148683050F8250000F11901332904
:1013000004D35BF8252010444BF825004AF82580CB
:101310004AF8268049F825805BF82510002749F215
:1013200070424046D14204DA064A1066064A01205D
:101330001060216445E70000000000200F0A002033
:101340001C0A0020F80D00209C000020054C002005
:101350004FF4FA752060206807F0CAF928460AF0B1
:1013600043FCF8E794000020FEE7000030B51D4B79
:101370001868800734D01C494A6801EB0210521CDF
:101380004A601A4A146800F10C0065074FF0000427
:1013900003D4447315686D0D04E001254573156889
:1013A000C5F3D10505601268C2F3400282730F4A8B
:1013B000121D126802F00F0202730C4A0832126802
:1013C00042600A4A0C32126882604868082800D1DC
:1013D0004C600868401C0860186840F020001860E5
:1013E00030BD00000C64004000000120B0650040EA
:1013F000F0B531480068C0075CD02F4B0C3318683B
:1014000020F0010018602D4A1668002E52D0946812
:101410002B4902EB0410641C002794600F600D68D8
:1014200090F819C00C30BCF1000F3BD0D0F800C0D0
:101430004FEACC0C0CF1040C45EA0C050D600D686C
:1014400090F80EC0BCF1000F01D04FF0020C45EA3D
:101450000C050D60DFF868C045680CF1080CCCF88D
:1014600000500CF1040C8568CCF80050144D2D1D73
:10147000D5F800C02CF00F0CC5F800C0D5F800C09E
:10148000007B00F00F004CEA000CC5F800C01868A3
:1014900040F001001860086840F001000860082C66
:1014A00005D005E0B0F800C04FEA4C5CC4E7976097
:1014B000761E1660F0BD0000086400408C0001201C
:1014C000806500400020044902460A54401CC0B216
:1014D0006428FAD3704700009CBF00202DED028BDA
:1014E00088B0FCA007F0C6FDFD4E9FEDFE8BDFF837
:1014F000FCB3DFF8FCA3FF4DFF4F4FF0000830882E
:1015000000047DD5A6F8008028784C2816D04F28F6
:101510002BD0412875D0532874D04F282AD0562874
:1015200071D0532870D045286FD065286ED06128BF
:101530006DD07A286CD066286BD0F4E268786F287A
:10154000FBD1A8786128F8D1E8786428F5D128790A
:101550006428F2D168796528EFD1A8796628ECD1A2
:1015600005F0DCFD06F0AEFBC1E26878662805D028
:10157000752835D06878662873D0D4E2A8786628B4
:10158000DBD1E8787328D8D128796528D5D1687956
:101590007428D2D1A8793D2876D1E87942F2107129
:1015A000303810FB01F0297A01EB4102C2EBC11186
:1015B00000EBC100697A01EBC10202EB011100EB03
:1015C0008100A97A01EB810100EB4100E97A08442E
:1015D000A0F55040C6495038703180B2486086E26C
:1015E000A8787428A9D1E8787028A6D12879752818
:1015F000A3D168797428A0D1A8793D289DD109E0AC
:10160000B6E22FE041E0E5E002E145E199E12CE2BC
:1016100050E274E2E879B94B3038012281B2CBF85C
:10162000C820C3F80080CBF86010BAF80410B448A2
:10163000AAF80210B0FBF1F1B2480088084480B269
:10164000532106F0AFFE06F0D7FE06F003FFB9F116
:10165000000F73D0B9F1010F71D0B9F1020F6FD043
:1016600084E2A3E06878752887D1A878742884D1AB
:10167000E8786F2884D128793D2884D1687930387A
:1016800080B2CAF8140032E29CE068786528A9D1DB
:10169000A8787428A6D1E878562802D0462844D0E5
:1016A000BCE02879312802D032281FD03BE268798B
:1016B0003D28FBD16A4694A18E48FEF735FE684668
:1016C000FEF7BEFE80B2FFF750F853EC182BFEF782
:1016D000DDFF41EC100B53EC182B8AED120BFEF7DB
:1016E00063FFFFF74FF8CBF8980000E268793D28D8
:1016F000DCD16A4684A17F48FEF716FE6846FEF7F5
:101700009FFE80B2FFF731F853EC182BFEF7BEFFB7
:1017100041EC100B53EC182B8AED140BFEF744FF31
:10172000FFF730F8CBF89C00E1E128795628BDD1CD
:101730006879312805D0322814D0F4E1F5E1D8E1F8
:101740000EE2A8793D28B1D16A466FA16948FEF73B
:10175000EBFD6846FEF774FE81B2AAF80410AAF801
:101760000210ADE0A8793D28A0D16A4666A1614883
:10177000FEF7DAFD6846FEF763FE6846FEF760FE98
:1017800080B25F49AAF80600B1FBF0F1AAF80200A6
:101790005C480088084480B2532106F003FE06F03E
:1017A0002BFEBAF80610CBF8A410A0E1A8786628A2
:1017B000C3D1E8787328C0D128796528BDD168796C
:1017C0007428BAD1A8793F28B7D149486830416810
:1017D00050A03AE168784F28AFD1A8785528ACD10D
:1017E000E8785428A9D128794128A6D168794328D6
:1017F000A3D1A8793F28A0D1DAF84400FEF7FAFF78
:1018000041EC100B48A053EC102B07F033FC6EE1B9
:101810006878652891D1A87874288ED1E8782B282B
:1018200002D02D2819D07EE12879312885D1687918
:101830003028F8D1A8795628F5D106F0E3FD01202B
:10184000CDE90408DFF8EC90039003A94846CDF8F1
:10185000188000F0CDFE012219E028793128E2D16C
:1018600068793028DFD1A8795628DCD106F0CAFD86
:101870000120CDE90408DFF8BC90039003A9484695
:10188000CDF8188000F0B4FE06F0BCFD0022012166
:10189000484600F08EFF2AE168787828C3D1A878FE
:1018A0006928C0D1E8787428BDD128793128BAD107
:1018B00068793028B7D1A8795628B4D1BAF802107F
:1018C0000F48B0FBF1F10F480088084480B2532163
:1018D00032E0000057656C636F6D65200D0A0000F3
:1018E0001E0A00200000000000408F40F80D00207C
:1018F000000000209CBF0020340100209C0000203C
:1019000040420F00FC090020252A5B5E3D5D3D251D
:10191000730000004F66667365742056616C7565D0
:101920003D20256400000000566F7574203D202581
:101930002E3366000004024006F034FD06F05CFD24
:10194000D5E0687872281DD1A87872281AD1E87875
:101950006F2817D12879722814D16879312812D0CC
:10196000322823D0332834D0342845D0352856D0D7
:1019700031280BD032281CD033282DD034283ED02B
:1019800035284FD0CFE0A8793D2803D0A8793F284B
:1019900058D0C8E06A46AFF290018748FEF7C4FC11
:1019A0006846FEF74DFDCBF8A800A0E0A8793D28D9
:1019B00003D0A8793F284BD0B5E06A46AFF2B80112
:1019C0007D48FEF7B1FC6846FEF73AFDCBF8AC0067
:1019D0008DE0A8793D2803D0A8793F283BD0A2E02C
:1019E0006A46AFF2DC017448FEF79EFC6846FEF7DB
:1019F00027FDCBF8B0007AE0A8793D2803D0A8797C
:101A00003F282BD08FE06A46AFF204116A48FEF7F8
:101A10008BFC6846FEF714FDCBF8B40067E0A879AC
:101A20003D2803D0A8793F281BD07CE06A46AFF25E
:101A300028116148FEF778FC6846FEF701FDCBF8F7
:101A4000B80054E0DBF8A8100DE007F013FB4EE0FF
:101A5000DBF8AC1007E0DBF8B01004E0DBF8B41002
:101A600001E0DBF8B81055A0EFE7687864285AD198
:101A7000A8786D2857D1E878612854D1287978283A
:101A800051D168793D2802D03F280FD04BE06A46FB
:101A9000AFF28C114848FEF747FC6846FEF7D0FCD1
:101AA000494980B20880CBF8BC0020E04648018854
:101AB00046A0CAE76878652835D1A878722832D15F
:101AC000E8786F282FD128793D2802D03F2812D0FE
:101AD00029E06A46AFF2D0113748FEF725FC684688
:101AE000FEF7AEFC00B2AAF81200CBF8C0004FF02F
:101AF000010939A038E0BAF9121039A0A5E76878D1
:101B0000722810D1A87871280DD1E87861280AD1FF
:101B10002879642807D168796A2804D1A8793D28F2
:101B200005D03F2817D04FF0000930A019E06A46D1
:101B3000AFF22C212048FEF7F7FB6846FEF780FC49
:101B40002F4900B20880CBF85C00BAF802202D497A
:101B5000B1FBF2F1B9E62A48B0F900102AA074E707
:101B60002CA007F087FA30A007F084FAFFF7AAFC50
:101B700006F06AF9902802D12DA000F0B3F9D7F849
:101B80000008012804D102F0D1F90220C7F80008AA
:101B900006F09AF9641CE4B2142C08D32B480024F4
:101BA000007BC00603D542F2420006F0C3F80A20CB
:101BB0000AF01AF8A3E400009CBF00206F66667369
:101BC00065743D2025640000100A002061646D6189
:101BD00078203D20256400000D0A3E200D0A0000FB
:101BE0007A65726F3D20256400000000434D445F1C
:101BF0004E4F545F444546494E4544200D0A00006F
:101C0000FC09002040420F006672712061646A3D49
:101C100020256400504152414D455445525F455284
:101C200052200D0A000000003E200D0A00000000B6
:101C3000496E76616C696420415054206D65737300
:101C400061676520666F726D61742E00400F002021
:101C50001CB50B4909480860084600F0B0FB00209D
:101C600000900220019000226946054800F086FBA2
:101C70000021034800F0DEFB1CBD000000740040A2
:101C800030BF002001681823CAB2103AB2FBF3F249
:101C9000054B6FF30901032A9B5CC36500D9091D3D
:101CA0008165084670470000FCC5000810B5014674
:101CB00000208B698A6A4FF0C07453B1B3F5005F9E
:101CC00015D072B1012A0CD0022A0AD0032A09D1F8
:101CD00004E01AB1012A06D0022A03D1C96AC90157
:101CE00000D5012010BDC96AA142FAD010BD002A5A
:101CF000F7D0012AF2D0022AF3D0032AF3D010BD84
:101D0000002801D1014908607047000094000020BC
:101D10007047000008B1402001E04FF48000014905
:101D200088617047000002402DE9F0410122104E09
:101D3000104F114C002509B108B914E050B1A2654B
:101D400008F073F8606D00EB80004000F0607D6487
:101D5000BDE8F081A56508F065F8606D00EB8000D6
:101D60004000F060F4E7A565BDE8F04108F05AB81E
:101D700088000020F00E0020F80D002070472DE9AB
:101D8000F041174604460126C81998460D46B0F59D
:101D9000006F29D2002005F0C7FE032005F0CEFE1B
:101DA000C5F3072005F0CAFEE8B205F0C7FE00251E
:101DB00011E0002005F0C2FEB8F1000F06D046B1D8
:101DC00014F8011B814204D1012603E004F8010B41
:101DD00000E000266D1CBD42EBD3012005F0A4FEFF
:101DE00016B10020BDE8F0810120FBE72DE9F047A6
:101DF0008F188846B7F5006F02D30120BDE8F08741
:101E000005460C4641E000BF04F01F06444500D0E3
:101E1000AEB9002005F088FE062005F08FFE0120F7
:101E200005F082FE002005F07FFE022005F086FE10
:101E3000C4F3072005F082FEE0B205F07FFE15F83E
:101E4000010B05F07BFE1F2E02D0781EA0421BD195
:101E50000026012005F068FE4FF47A79002005F095
:101E600063FE052005F06AFE002005F067FE82464D
:101E7000012005F059FE3046761C484501D9022064
:101E8000BCE75FEACA70E9D1641CA742BCD8012054
:101E900005F04AFEB1E7022000F09EBB042000F0EE
:101EA0009BBB082000F098BB102000F095BB000001
:101EB00000B585B0042000900848019002200290EF
:101EC0006946074800F094FB00220221082000F038
:101ED000EFFC082000F0E0FC05B000BD0000311070
:101EE000000402407047000080ED000A30EE600AF6
:101EF000154A80ED020AD0ED080A30EE801A80ED16
:101F0000081AD0ED050AD0ED061A60EE800A41EEFF
:101F1000810A90ED031AD0ED071A30EE411A41EE16
:101F2000810AC0ED010A80ED030AB0EEC00A10EE8E
:101F3000101A914202DDB0EE600A70479FED030A6D
:101F400080ED010A704700000AD7233C0000000022
:101F50002DE9104005F0D4FF0128FBD010BD000092
:101F60002DE9F843164D0120DFF858902870002223
:101F70008021484600F01DFC00248DF800408DF8BB
:101F800001408DF802404FF47A73032269460E48EF
:101F900001F064F89DF800809DF801709DF80260E2
:101FA00001228021484600F004FCB00800EB8711B4
:101FB00001EB88302C7000B2E880BDE8F8830000A7
:101FC0000E0A00200008024044BF00201FB56946E9
:101FD0000090012001900720029000200390084803
:101FE00000F024F8064800F06BF90A21044800F0DC
:101FF00015F9034800F0C0F804B080B210BD00002D
:10200000A8BE00202DE9F04100250E4607462C46CB
:1020100005E03846FFF7DAFF641C0544E4B2B44239
:10202000F7D3B5FBF6F080B2BDE8F08178B50024B7
:10203000009490F83C20012A19D0012280F83C201D
:102040000A6807230568092A13D9EE680A3A02EBE1
:10205000420293409E43EE600B788A680A3B03EB92
:1020600043039A400368DD682A43DA6010E00220E7
:1020700078BD2E6902EB420293409E432E610B789D
:102080008A6803EB43039A4003681D692A431A6177
:102090004A681F23072A13D205686E6B521E02EB93
:1020A000820293409E436E630B790A885B1E92B254
:1020B00003EB83039A4003685D6B2A435A6327E06E
:1020C00005680D2A12D22E6BD21F02EB82029340BA
:1020D0009E432E630B790A88DB1F92B203EB8303C6
:1020E0009A4003681D6B2A431A6311E0EE6A0D3AA9
:1020F00002EB820293409E43EE620B790A880D3B0D
:1021000092B203EB83039A400368DD6A2A43DA62E2
:10211000164B0568144A9D4206D10D68122D03D155
:10212000556845F48005556005689D4218D10B68D7
:10213000102B01D0112B13D1536843F400035360CB
:10214000096810290CD10A490A4A0968B1FBF2F161
:1021500001EB8101490000E0491E00910029FBD1FB
:1021600080F83C40002078BD002301400020014061
:102170007809002040420F000068C06C704770B5BD
:1021800004004FF0000503D0206C002610B107E0DA
:10219000012070BD666484F83C60204600F01AF8A7
:1021A000206CC00610D4206C20F4885040F002004F
:1021B00020642046FEF760FF6664206C20F0020079
:1021C00040F00100206400E0012584F83C602846CE
:1021D00070BD00000F4800B5026887B0002142F4CE
:1021E00080720260006800F480700590094814381D
:1021F000026842F001020260006800F001000590F0
:1022000003200090CDE901016946034800F0F0F990
:1022100007B000BD44380240000002402DE9F04103
:10222000044600680D4681684FF0000749050BD54C
:102230008068C00508D5206C40F02000206484F838
:102240003C700120BDE8F08100F0BEFA06460FE0C8
:10225000681C0DD025B100F0B7FA801BA84207D941
:10226000206C40F00400206484F83C700320E9E70F
:10227000206800688007EBD521686FF012000860C5
:10228000206C40F4007020642068816811F0405F89
:1022900013D1A16989B9C16A11F4700F02D08068A5
:1022A00040050AD4206C20F480702064206CC004A7
:1022B00003D4206C40F0010020640020C2E700003D
:1022C00018B50021009190F83C20012A07D0012286
:1022D00080F83C2002689368DB0702D011E00220FE
:1022E00018BD936843F001039360204A204B1268A5
:1022F000B2FBF3F202EB420200E0521E0092002A0F
:10230000FBD102689368DB072DD0036C40F20164B7
:10231000A34343F48073036453685B0505D5036CE2
:1023200023F4005343F480530364036CDB0404D5AB
:10233000436C23F00603436400E0416480F83C10E2
:102340000C496FF02203136049680068C90602D087
:102350000949884207D1816811F0405F03D1816843
:1023600041F080418160002018BD00007809002004
:1023700040420F00002301400020014070B5437926
:10238000012B1AD0012646710223037105682C68BF
:1023900040F6FE7393409C43D1E900310B439340D8
:1023A00023432B6001680B68C0249440A3430B6057
:1023B000067100214171084670BD022070BD70B5E4
:1023C000040003D02079002510B105E0012070BD84
:1023D0006571204600F008F8022020712561012077
:1023E0002071002070BD0000104800B5026887B061
:1023F000002142F000520260006800F00050059099
:102400000A481038026842F001020260006800F0D9
:1024100001000590102000900320CDE901016946DC
:10242000034800F0E5F807B000BD00004038024066
:102430000000024030B54279012A16D001224271D3
:102440000223037103681D6802FA01F425431D602D
:10245000002901680B680AD00C6803F4802304F497
:102460006014B3F5802F0FD015E0022030BD0C684A
:1024700003F0040304F03804042B0CD1382C0AD1E7
:102480004B6843F0010305E0B4F5601F03D14B68CE
:1024900043F002034B60027100214171084630BDD8
:1024A00090F83510022903D0802141650120704742
:1024B000052180F835100068016821F001010160F4
:1024C000002070472DE9F041044600F07DF90646F2
:1024D0005CB1002584F83450022084F8350020686F
:1024E000016821F0010101600DE00120BDE8F081EB
:1024F00000F06AF9801B052805D9202060650320BB
:1025000084F83500F2E720680068C007F0D122683F
:10251000116820480140D4E901031843D4E9033687
:102520003343184363691843A3691843E3691843A5
:10253000236A18430843616A042903D1D4E90B13C1
:1025400019430843106020684069666A20F007015B
:1025500030460E43012704280CD1A06A0643E06AE6
:1025600040B12046FFF7A2FB20B14020606584F80F
:102570003570BAE7206846612046FFF783FB94F880
:102580005C203F2191408160656584F835700020B2
:10259000ACE700003F8010F010B5022811D00428ED
:1025A00013D10C489FED090B53EC102B90ED000B51
:1025B00051EC100BFEF732F907D05321632005F0E0
:1025C00055FFBDE8104005F061BF10BD00000000E0
:1025D0000000000060000020044910B50A680242B3
:1025E00002D00860FFF7D8FF10BD0000143C014086
:1025F0002DE9F84FDFF87CB100224FF001084FF0D1
:10260000030A4FF00F090BF1040E00BF0B6808FA24
:1026100002F42340A3426ED14D68022D01D0122D49
:102620000ED1D50800EB850CDCF820505607F70ECC
:1026300009FA07F6B5430E69BE402E43CCF8206078
:10264000066855000F790AFA05FC07F0030726EA29
:102650000C06AF40374307604E68012E05D0022EAE
:1026600003D0112E01D0122E0ED18668CF6826EA33
:102670000C06AF40374387604668A6430C79C4F325
:102680000014944034434460C6688C6826EA0C0603
:10269000AC403443C4604C68E40065D5364C2568D2
:1026A00045F480452560246822F0030504F4804445
:1026B0000094324C2E19D6F8084895072F0F09FAC6
:1026C00007F5AC432E4DA84201D1002524E02D4D45
:1026D000A84201D101251FE02B4DA84201D10225BE
:1026E0001AE02A4DA84201D1032515E0284DA84241
:1026F00002D1042510E037E0264DA84201D105257E
:102700000AE0254DA84201D1062505E0234DA84247
:1027100001D1072500E00825BD402543C6F808582B
:10272000DBF800405D464E689C43F60300D51C4331
:102730002C60DEF8004075464E689C43B60300D519
:102740001C432C600B4D08352C684E689C43F602E8
:1027500000D51C432C60074D0C352C684E689C43FB
:10276000B60200D51C432C60521C102AFFF44EAF59
:10277000BDE8F88F003C0140443802400030014081
:10278000000002400004024000080240000C024029
:10279000001002400014024000180240001C0240D9
:1027A0000069084000D00120704742694A404261F8
:1027B00070470AB1816170470904FBE7014800686E
:1027C000000C7047002004E00148006870470000DA
:1027D0007409002002480168491C0160704700002C
:1027E000740900200B4810B5016841F400710160C4
:1027F000016841F480610160016841F48071016009
:10280000032000F075F80F2000F006F800F018F82B
:10281000002010BD003C024010B5044607484FF4AC
:102820007A710068B0FBF1F000F06CFE00222146E6
:10283000501E00F03DF8002010BD00007809002077
:1028400010B5032000F054F8002211466FF00B0081
:1028500000F02EF8002211466FF00A0000F028F870
:10286000002211466FF0090000F022F80022114604
:10287000501F00F01DF800221146101F00F018F83C
:1028800000220F21901E00F013F800220F21BDE856
:102890001040501E00F00CB800F01F0201219140C2
:1028A0004009800000F1E020C0F8001170470000EE
:1028B000F0B40E4B1B680C46C3F30223C3F10705AB
:1028C000042D00D90425191D072901D2002300E099
:1028D000DB1E012606FA05F1491E214099409E4063
:1028E000761E16403143F0BC04F007BC0CED00E04E
:1028F000064900F0070208684FF6FF03184040EA57
:102900000220034A10430860704700000CED00E00D
:102910000000FA052DE9F0470E46050065D0DFF806
:102920001481D8F80000F7B200F00F00B04207D2CF
:1029300088F80070D8F8000000F00F00B04254D1C1
:1029400028683D4C810712D5400703D5206840F424
:10295000E05020602878000703D5206840F46040EC
:1029600020602068A96820F0F000084320602878E3
:10297000C0072DD0304968680839012812D00228D4
:1029800013D0032811D00968890700292DDA21689E
:1029900021F0030101432160FFF716FF814641F258
:1029A000883A0EE009688903EFE709688901ECE7D6
:1029B000FFF70AFFA0EB0901514502D90320BDE84A
:1029C000F0872068696800F00C00B0EB810FEFD150
:1029D000D8F80010404601F00F01B14207D9077046
:1029E000006800F00F00B04201D00120E7E728782E
:1029F000400705D52068E96820F4E05008432060CE
:102A00002878000706D52068296920F4604040EA4C
:102A1000C100206000F03CF82168084AC1F30311AE
:102A2000515CC840064908600F20FFF7F5FE002002
:102A3000C5E70000003C02400838024004C6000818
:102A400078090020014800687047000078090020DC
:102A50000448054900680968044AC1F38221515CB1
:102A6000C8407047780900200838024014C60008A2
:102A70000448054900680968044AC1F34231515CC1
:102A8000C8407047780900200838024014C6000882
:102A9000154810B5006810F00C02144813D0144902
:102AA000042A0FD0082A0ED10F4C241F2268236855
:102AB00002F03F025B0207D52068C0F38810A0FB3C
:102AC000010106E0084610BD2168C1F38811A1FB91
:102AD00000010023FDF7D2FB2168C1F30141491C2D
:102AE0004900B0FBF1F010BD083802400024F400AA
:102AF00040787D012DE9F84F050071D0DFF8D092C4
:102B00002878A9F1040BC007ABF104044AD0D9F826
:102B100000104846C1F38101012908D00068C0F3C4
:102B2000810002280AD1DBF80000400206D52068A7
:102B3000800337D568680028DFD033E06868B0F5D7
:102B4000803F10D0B0F5A02F206810D020F4803046
:102B50002060206820F4802020606868A8B1FFF71A
:102B600033FE06460DE0206840F48030F4E740F480
:102B700080202060F7E700BFFFF726FE801B642857
:102B800073D820688003F7D50CE0FFF71DFE0646DA
:102B900005E000BFFFF718FE801B6428F0D820680E
:102BA0008003F7D428788B4F80074FF0010A4FF04D
:102BB00000083DD5D9F80010484611F00C0F08D098
:102BC0000068C0F3810002280BD1DBF8000040024E
:102BD00007D42068800715D5E868012800D111E0E6
:102BE000F3E0E868B0B1C7F800A0FFF7EDFD0646D6
:102BF00005E000BFFFF7E8FD801B022835D82068FC
:102C00008007F7D52068296920F0F80040EAC10064
:102C100020600DE0C7F80080FFF7D6FD064604E00F
:102C2000FFF7D2FD801B02281FD820688007F7D449
:102C30002878000724D56848696981B1C0F800A0E8
:102C4000FFF7C2FD064604E0FFF7BEFD801B022829
:102C50000BD85F486C3000688007F5D510E0C0F8ED
:102C60000080FFF7B1FD064605E074E0FFF7ACFD1C
:102C7000801B02286FD856486C3000688007F5D456
:102C80002878400753D552483830016841F08051C8
:102C90000160006800F0805000905048016841F4E5
:102CA00080710160FFF790FD064604E0FFF78CFDA0
:102CB000801B02284FD849480068C005F6D5444E0D
:102CC000A868683601280FD00528306810D020F099
:102CD00001003060306820F004003060A868B8B1AE
:102CE000FFF772FD00900FE0306840F00100F4E75C
:102CF00040F004003060F7E7FFF766FD0099411AE5
:102D000041F28830814258D830688007F4D50EE00F
:102D1000FFF75AFD009007E0FFF756FD0099411AB2
:102D200041F28830814248D830688007F4D4A869DD
:102D300090B3D9F80010C1F38101022945D00228CF
:102D4000C7F8608003D0FFF73FFD054638E0FFF786
:102D50003BFD064605E030E0FFF736FD801B02280C
:102D60002BD820688001F7D4D5E907010843A96A68
:102D70001B4A490802EB01416A6A41EA8211084391
:102D800095F82C1040EA0161CBF80010C7F860A05C
:102D9000FFF71AFD054606E015E000BFFFF714FD3A
:102DA000401B022809D820688001F7D50BE000BF3E
:102DB000FFF70AFD401B022802D90320BDE8F88F67
:102DC00020688001F4D40020F8E70120F6E7000035
:102DD0000838024000004742800E47420070004021
:102DE0000000FFFF7047000038B5044600684268E5
:102DF00081684B0605D4CB0703D0530601D5216C5F
:102E000004E08B0707D5130605D5616C01B0204699
:102E1000BDE83040084711F4B07F48D0930646D54E
:102E20004B060AD594F85130032B3DD0636D43F027
:102E300004036365C368836800938B0609D5636DDB
:102E400043F00103636583680093036823F0400344
:102E50000360C80506D5606D40F008006065206815
:102E600080680090606D002821D02068416821F0C2
:102E7000E0014160012084F85100900718D02068DB
:102E8000416821F0030141600B4DE06C18B105650C
:102E9000E06CFFF705FBA06C002808D00565A06C6E
:102EA000BDE83840FFF7FCBAC1688068009038BDC3
:102EB0002046FFF797FF38BD1D7C000870B5040061
:102EC00005D00025A56294F8510010B106E001205C
:102ED00070BD84F85050204600F030F8022084F88D
:102EE00051002068016821F040010160D4E901012E
:102EF0000843D4E903121143084361690843218B55
:102F000001F400710843E1690843216A0843A16A9A
:102F1000084321680860A069042101EA1040616A41
:102F20000843216848602068C16921F40061C161DB
:102F30006565012084F85100002070BD2DE9F04F37
:102F4000064600683E490024032787B0884259D1CD
:102F50003C48016841F480510160006801A900F417
:102F600080500590E0200090022081E8910005202B
:102F7000049069463448FFF73BFB354D33484FF02A
:102F8000C068E5E8020840204FF48069A5E8110216
:102F90004FF4000A45F8144905F12401AC61EC61D5
:102FA0004FF4001B2C6281E8900C2948FFF78AFA45
:102FB000B564AE63264D2548603518382860C5E9EC
:102FC0000184C5E903496C614FF40030AC61C5E987
:102FD000074005F12401284681E8900CFFF772FABA
:102FE000F564012211463B20AE63FFF761FC3B20F4
:102FF000FFF752FC002201213A20FFF759FC3A204A
:10300000FFF74AFC13493068884216D10D48001F6B
:10301000016841F480410160006801A900F480402A
:1030200005904FF460400090022081E89100052057
:10303000049069460848FFF7DBFA07B0BDE8F08F57
:103040000030014044380240000002405864024011
:10305000900A002000380040000402402DE9F84F9B
:10306000044640680026984617460D464FF004096E
:10307000B0F5827F01D1A06890B194F8500001288A
:1030800019D04FF0010B84F850B0FFF79DFB009072
:1030900094F851004FF0000A01280ED002267FE07C
:1030A00084F8519013460A462046CDF8008000F07F
:1030B00031F9BDE8F88F0220FBE7002D6FD0002F1B
:1030C0006DD084F85190C4F854A0A563A787E78712
:1030D000C4F830A0A4F834A0A4F836A0C4F840A0E6
:1030E000C4F844A0A0684FF40047B84204D1206857
:1030F000016821F48041016020680168490603D419
:10310000016841F040010160E068B8B133E0206837
:103110008168C90706D0007B05F8010BE08F401ECF
:10312000E0870BE0B8F1000F23D0B8F1FF3F05D0E6
:10313000FFF74AFB0099411A41451AD2E08F002857
:10314000E5D11BE020688168C90706D0C06825F872
:10315000020BE08F401EE0870DE0B8F1000F08D0B1
:10316000B8F1FF3F07D0FFF72FFB0099411A414507
:1031700001D3032614E0E08F0028E3D16068B0F5A6
:10318000827F0AD1A068B84202D0B0F5806F04D126
:103190002068016821F040010160606D00B10126E6
:1031A00084F851B084F850A0304682E72DE9F84FFA
:1031B000044690F850000026994617460D4601280F
:1031C0000DD04FF0010B84F850B0FFF7FDFA8046A8
:1031D00094F85100B246012804D0022694E002205F
:1031E000BDE8F88F002D7BD0002F79D0032084F824
:1031F0005100C4F854A02563A786E786C4F838A018
:10320000A4F83CA0A4F83EA0C4F844A0C4F840A090
:10321000A068B0F5004F04D12068016841F48041F6
:10322000016020680168490603D4016841F040014B
:103230000160E068B0F5006F606804D030B3E08EE4
:10324000012823D03EE010B1E08E01281AD135F8D4
:10325000021B206805E020688168890706D535F8DB
:10326000021BC160E08E401EE0860BE0B9F1000F4A
:1032700034D0B9F1FF3F05D0FFF7A6FAA0EB080163
:1032800049452BD2E08E0028E5D11EE0216815F8D3
:10329000010B087306E020688168890706D515F8D8
:1032A000011B0173E08E401EE0860BE0B9F1000FB8
:1032B00014D0B9F1FF3F05D0FFF786FAA0EB080163
:1032C00049450BD2E08E0028E5D14B460122022170
:1032D0002046CDF8008004F0A9FC10B1032613E0CD
:1032E00011E042464946204604F088FC18B1012608
:1032F0002020606508E0A06818B92068C16880686F
:103300000090606D00B1012684F851B084F850A09F
:10331000304665E72DE9F84F044690F85000002646
:103320000A9F9A4693460D464FF0010801280ED099
:10333000012084F85000FFF747FA814694F85100C5
:10334000616801280CD0B1F5827F07D102E002202C
:10335000BDE8F88FA16809B9042801D00226BDE0B4
:1033600055B1BBF1000F07D0BAF1000F04D094F8AB
:103370005100012802D004E00126AFE0052084F8C6
:10338000510000206065C4F838B0A4F83EA0A4F84D
:103390003CA02563A4F836A0A4F834A0206460649F
:1033A00020680168490603D4016841F040010160CA
:1033B000E068B0F5006F606804D0E8B3E08E0128E3
:1033C0003BD06AE010B1E08E01282ED1216835F89B
:1033D000020BC860E08E401EE08626E0B8F1000FC8
:1033E0000DD0E08E58B120688168890707D535F87F
:1033F000021BC160E08E401EE0864FF00008E08FA7
:1034000058B120688168C90707D0C0682BF8020B43
:10341000E08F401EE0874FF00108781C05D0FFF7D1
:10342000D3F9A0EB0900B84246D2E08E0028D5D1EE
:10343000E08F0028D2D136E0FFE7216815F8010BB4
:103440000873E08E401EE08627E000BFB8F1000F51
:103450000DD0E08E58B120688168890707D515F82E
:10346000011B0173E08E401EE0864FF00008E08FE4
:1034700058B120688168C90707D0C0680BF8010BF4
:10348000E08F401EE0874FF00108781C05D0FFF761
:103490009BF9A0EB0900B8420ED2E08E0028D5D1EE
:1034A000E08F0028D2D13B46012202212046CDF8F0
:1034B000009004F0BBFB08B103260FE04A463946F2
:1034C000204604F09BFB18B101262020606505E032
:1034D000A06818B92068C16880680090012084F84D
:1034E0005100002084F85000304631E74FF0E021D1
:1034F0000428086903D020F004000861704740F0F8
:103500000400FAE710B5401EB0F1807F01D301201E
:1035100010BD4FF0E02460610F21601703F0EDFD56
:103520000020A06107202061002010BD7047704777
:1035300010B504460068042205F019F82068416CB3
:1035400041F4004141642068016841F001010160DB
:10355000002010BD10B5040003D094F8390010B15C
:1035600007E0012010BD002084F83800204600F05C
:103570000DF8022084F83900211D206804F08CFF2A
:10358000012084F83900002010BD000038B5054640
:1035900000682949294C88420FD1206840F0080072
:1035A00020602068002200F00800009001213220F5
:1035B000FFF77EF93220FFF76FF92868B0F1804FEE
:1035C0000FD1206840F0010020602068002200F048
:1035D0000100009002211C20FFF76AF91C20FFF770
:1035E0005BF91749286888420FD1206840F0020033
:1035F00020602068002200F00200009001211D20C0
:10360000FFF756F91D20FFF747F90E492868884251
:1036100011D1206840F0200020602068002200F0D6
:103620002000009007213720FFF742F9BDE838401D
:103630003720FFF731B938BD000C00404038024058
:1036400000040040001400400168CA6842F0010212
:10365000CA600068016841F0010101600020704704
:103660000168CA6822F00102CA600068016A41F27A
:103670001112114207D1016A9210114203D101685F
:1036800021F00101016000207047704770B50446C9
:10369000006801694FF00005C943890715D4C16866
:1036A000C943890711D4E91E0161012020762068F1
:1036B00080698007204602D0FFF7E7FF04E000F0B2
:1036C000C3F8204600F082F9257620680169C943D5
:1036D000490717D4C168C943490713D46FF00401DF
:1036E0000161022020762068806910F4407F204626
:1036F00002D0FFF7CAFF04E000F0A6F8204600F071
:1037000065F9257620680169C943090716D4C1689F
:10371000C943090712D46FF0080101610420207623
:103720002068C0698007204602D0FFF7AEFF04E0A2
:1037300000F08AF8204600F049F9257620680169F2
:10374000C943C90617D4C168C943C90613D46FF069
:1037500010010161082020762068C06910F4407FC4
:10376000204602D0FFF791FF04E000F06DF82046FC
:1037700000F02CF9257620680169C943C90708D1F2
:10378000C168C943C90704D1891E0161204600F000
:1037900069F920680169C943090609D4C168C943A8
:1037A000090605D46FF0800101612046FFF7BEFED7
:1037B00020680169C943490609D4C168C94349065B
:1037C00005D46FF040010161204600F0D3F9206874
:1037D0000169C94389060BD4C168C943890607D466
:1037E0006FF0200101612046BDE87040FFF79FBEE9
:1037F00070BD70B5044690F8380001280DD0012541
:1038000084F83850022084F8390042B1042A0AD0E2
:10381000082A0CD00C2A11D10DE0022070BD2068BE
:1038200004F0B0FE0AE0206804F0D8FE06E020684C
:1038300004F006FF02E0206804F032FF84F83950FB
:10384000002084F8380070BD704770B5044690F8C9
:1038500038000D4601280DD0012684F8386002207A
:1038600084F8390042B1042A18D0082A2AD00C2A38
:103870004DD139E0022070BD206804F083FE20683D
:10388000816941F0080181612068816921F00401AA
:103890008161206881692A69114311E0206804F080
:1038A0009DFE2068816941F4006181612068816921
:1038B00021F480618161206881692A6941EA0221DD
:1038C000816124E0206804F0BBFE2068C16941F0FA
:1038D0000801C1612068C16921F00401C16120684B
:1038E000C1692A69114311E0206804F0D9FE2068FB
:1038F000C16941F40061C1612068C16921F480613E
:10390000C1612068C1692A6941EA0221C16184F864
:103910003960002084F8380070BD10B5040003D071
:1039200094F8390010B107E0012010BD002084F8A0
:103930003800204600F00EF8022084F83900211DDE
:10394000206804F0A9FD012084F83900002010BD92
:1039500070470000F0B51B4887B0016841F00101D5
:103960000160006800F0010005901648001F016822
:1039700041F002010160006800F00200059011486A
:103980001438016841F00201016000680224012539
:10399000CDE9005400F002000326CDE90440CDE952
:1039A0000246094F69463846FEF722FECDE9024637
:1039B00000946946384604950194FEF719FE07B055
:1039C000F0BD00004438024000040240704700008F
:1039D00010B504460068012204F0BEFD08492068C5
:1039E000884202D00749884203D1416C41F400412A
:1039F00041642068016841F001010160002010BDB0
:103A0000000001400004014010B504460068002297
:103A100004F0A2FD114841F2111221689310814275
:103A200002D00F48814209D1086A104206D1086AC3
:103A3000184203D1486C20F4004048642068016AB1
:103A4000114206D1016A194203D1016821F0010136
:103A50000160012084F83900002010BD0000014001
:103A6000000401402DE9F04105463448344CDFF8AC
:103A7000D480854241D137483349344A344F236991
:103A8000C06E012683B1344B93ED000B81ED000B2A
:103A90003249098811800021216101281DD00228A6
:103AA00020D0032822D026E02D4B012893ED000BD7
:103AB00081ED000B2B4909881180266104D0022872
:103AC00007D0032807D016E0002280214046FEF7E9
:103AD00070FE002207E0002209E00122802140461A
:103AE000FEF767FE01220821384602E0012280210C
:103AF0004046FEF75EFE1C48068010487838854236
:103B000003D101214046FEF750FE0C483C3085426F
:103B100012D1FFF7A5FD154809490C31006808F0DE
:103B200077FBE068002807D011494FF0805008600B
:103B3000BFF34F8FBFF36F8FBDE8F081DCBD002076
:103B4000E409002000040240580000200800002082
:103B500000080240F80D0020500000200600002060
:103B60004800002004000020100000201800002061
:103B700004ED00E07047704770B5026804461068B5
:103B8000D168536910F00F0F50D003F0010501F414
:103B9000907635435DD0C20705D0CA0503D5E26BE8
:103BA00042F00102E263420705D5DA0703D0E26B77
:103BB00042F00202E263820705D5DA0703D0E26B26
:103BC00042F00402E263020705D5DA0703D0E26B94
:103BD00042F00802E263E26B002A33D0800604D58B
:103BE000880602D5204604F079FE20684069E16B22
:103BF000C0F38010090700D428B3204604F060FE0B
:103C00002068416949061AD5416921F040014161A6
:103C1000606BA0B11B490165606BFEF741FC002899
:103C200010D0606B016DBDE870400847830610D569
:103C30008B060ED52046BDE8704004F04FBE2046EE
:103C4000FFF799FF70BD2046FFF795FF0020E06366
:103C500070BD030606D50B0604D52046BDE87040AE
:103C600004F0D8BF4006F3D54806F1D5D168204608
:103C700021F04001D160202184F8391000F040F992
:103C800070BD0000B188000870B5040004D094F83D
:103C90003900002510B106E0012070BD84F83850CD
:103CA000204600F023F8242084F839002068C168F9
:103CB00021F40051C160204604F056FE20680169DD
:103CC00021F4904101612068416921F02A0141619C
:103CD0002068C16841F40051C160E563202084F888
:103CE000390084F83A00002070BD00002DE9F04151
:103CF00004460068204902250126032786B04FF0BC
:103D00000708884217D11D48016841F01001016081
:103D10000068694600F01000059078028DE8E10126
:103D20001748FEF765FC032211462520FEF7C0FD6B
:103D30002520FEF7B1FD13492068884219D10F48AC
:103D4000001F016841F4802101600068694600F4A9
:103D5000802005904FF440608DE8E1010A48FEF7AD
:103D600047FC032211462720FEF7A2FD2720FEF77D
:103D700093FD06B0BDE8F0810010014044380240D8
:103D80000000024000480040000402402DE9F843D2
:103D9000044690F83A00994616460D4620284FD121
:103DA00095B18EB194F83800012849D0012084F8EB
:103DB00038000027E763222084F83A00FEF704FD6C
:103DC000A6858046E68531E00120BDE8F883E08DD8
:103DD000401EE085A0684346B0F5805F4FF00002CA
:103DE0004FF020012046CDF8009004D004F043FFAE
:103DF00098B10320E9E704F03EFF0028F9D12069DB
:103E000000282068406803D0C1B225F8011B0DE0EE
:103E1000C0F3080125F8021B08E02069002820688B
:103E2000406801D000F07F0005F8010BE08D00280C
:103E3000CDD1202084F83A0084F838700020C4E7FF
:103E40000220C2E770472DE9F843044690F8390094
:103E50001F4616460D46202850D1A5B19EB194F8B4
:103E6000380001284AD0012084F838004FF00008BB
:103E7000C4F83C80212084F83900FEF7A5FCA68414
:103E80008146E68426E00120BDE8F883E08C401EF0
:103E9000E084A0684B46B0F5805F4FF000024FF021
:103EA00080012046009703D004F0E5FEE8B90DE05C
:103EB00004F0E1FEC8B928882168C0F30800486012
:103EC000206908B16D1C05E0AD1C03E0216815F800
:103ED000010B4860E08C0028D8D14B4600224021DD
:103EE0002046009704F0C7FE08B10320CCE720204D
:103EF00084F8390084F838800020C5E70220C3E741
:103F00007047000008B1102001E04FF48010014913
:103F1000086070471804024008B1202001E04FF407
:103F20000010014908607047180402402DE9F04F65
:103F30002DED068BADB00DF1060142F20C0CFB48E5
:103F4000FB4CFA4E038800791C910021012500F0FA
:103F50007F008DF804508DF803108DF80500D4F81B
:103F6000C8002390F348B046A3EB0C07B0F900203B
:103F7000F1484FF0810E00882090F04890ED009BB2
:103F8000EF4800882290E06E1F90D4F8C40024907F
:103F9000D4F860B0606B1E90B8F80A00B8F80890CA
:103FA0009FEDE88BE949B61D634591ED000BE849AB
:103FB000B1F800A098F803107ED06DDCDFF870C374
:103FC00040F25128A3F25127DCF834C043452CF0CD
:103FD000100CCDF87CC070D033DCDE48152B0768A0
:103FE0006CD01ADC052B6AD0112B11D0122B0FD0FC
:103FF000142B0DD130687168012809D1D5480160B2
:10400000D5A005F037F804220021D248FDF7EEFED6
:104010002DB0BDEC068BBDE8F08FB3F5047F7DD0ED
:10402000A3F50073113B7AD0122B79D03F2BEFD13F
:10403000012976D00229EBD11E9840F02000606360
:10404000E6E741F6B55CA7EB0C0367456AD013DCE5
:10405000A7F58067353F66D007F28567B7F500574B
:1040600073D0012F72D0042FD2D1B9F1010F6ED0CD
:10407000B9F1020F6CD0DEE2022B6AD0032B69D0BB
:10408000052BC5D100252566E16601297ED00229D0
:104090007DD003297CD037E3A54B1A2FB3F8C43069
:1040A0009BB2279375D056DC0B2F73D019DC022FEF
:1040B00071D0042F70D003E033E3C6E104E28EE058
:1040C000052F6AD00A2FA3D12166012966D00229C3
:1040D0007ED003297DD09FEDA70BA84880ED000B73
:1040E000E6E2A74A142F75D0152F74D0172F73D07E
:1040F000182F8DD142F22500ADF800001E208DF85A
:104100000200A0488DF804E0ADF806500188ADF833
:1041100008108188ADF80A10816805E0B9E087E1F0
:1041200091E08EE18AE2A1E10391C1680491016905
:10413000059141690691018BADF81C10C169CDF85C
:104140001E10008CADF822002CE2CFE119E240E213
:1041500054E28CE2AFE28C4A754BB2F800C0B3F87F
:1041600054801FFA8CFC1FFA88F8CDF874C0CDF883
:10417000B0800A22D3F88C80352F7DD014DC1B2F21
:104180007BD01C2F7AD01D2F79D008E0ACE2ADE2B5
:10419000B2E287E351E396E2CBE2E5E2F2E2342FCA
:1041A00091D17A48016033E7742F69D0752F68D0B8
:1041B0007A2FF8D1674850227549FC30FCF78FF808
:1041C000644949F65A20C1F84C0103F07BFD04E034
:1041D00016E328E33AE33FE34EE36EA090E30620C4
:1041E000ADF8000054208DF8020002468DF804E07E
:1041F0006D491C98FCF773F8CDF8067031208DF8E6
:10420000480037208DF8490034208DF84A003820C6
:104210008DF84B0032208DF84C0030208DF84D0089
:1042200044208DF84E0065208DF84F0063208DF8F6
:10423000500000208DF851003C4902201C39ADF897
:1042400054500860AEE1524E4020F06305F022FD6C
:1042500040F2E930B0615548406802F067FE012045
:10426000FDF74EFD00207064D4F8901069B1B06184
:10427000D4F89010606D05E0EFE32BE381E3C3E336
:1042800041E35BE3FDF750FDC2E6A56505F0CDFD1A
:10429000EEE7012905D00229EAD10020C4F8C800C0
:1042A000BCE039490020BBF1010F0860C4F8C850D8
:1042B00018D0BBF1020F17D0BBF1030F24D01E9909
:1042C000C9067CD51C483A490580A1F800A03949A7
:1042D000B1FBFAF0104480B2532104F063F804F00B
:1042E0008BF86EE0504600E0229831490880314951
:1042F000B1FBF0F0104480B2532104F053F804F005
:104300007BF804F0A7F889E0209A0B49012A02D132
:104310000880C4F834C02849249891FBF0F0532158
:10432000401E04F081F804F08FF877E0340100209B
:10433000F80D0020FC0900200000002050000020A3
:10434000060000200000000000408F4048000020D0
:1043500004000020A80C00200D0A53657269616CEE
:10436000206E756D6265722073657420746F2025F0
:104370007500000000000000000000006000002048
:104380009C1300209C1B00209C0000208C0000201F
:10439000F00E00200D0A536176656420454550619A
:1043A00072616D730D0A00008CC50008800000204A
:1043B0000200002040420F0080969800FFE7FE496F
:1043C0000880E06E012804D0022804D0032808D019
:1043D0000FE0022100E00121012004F0FBF902219D
:1043E00004E00221012004F0F5F90121022004F08B
:1043F000F1F9F2480078C00710D0F148F14925667C
:1044000000880880F049B1FBF0F1F04800880844CA
:1044100080B2532103F0C6FF03F0EEFF05F03AFC33
:1044200094F85800C0077FF433AF05F0FBFC1FE79A
:1044300040F21220ADF800008DF80250239868B1C8
:1044400011E01E9820F02000F9E540F25220ADF86E
:1044500000008DF802501E98800604D55FF002001F
:104460008DF8030059E38DF8035056E302F056FE31
:1044700003F028FC94ED260AF8EEC00A9FEDD48ADA
:10448000683480EE880A10EE100AFCF7B3F9D14ABE
:10449000C2E9000194ED0D0AF8EEC00A80EE880A28
:1044A00010EE100AFCF7A6F9CB4AC2E90001C44994
:1044B000208F0880C949A08F0880C9494020C8635F
:1044C00054F8140CA16AD6E61620ADF80000282096
:1044D0008DF80200C3488DF804E0002101604760B8
:1044E000014628221C98FBF7FAFE16E3B9F1010FEA
:1044F00003D0B9F1020F21D040E0FCF736F953ECBC
:10450000182BFCF7C3F8B34D41EC100B85ED000BF5
:104510009FEDB59B53EC192BFCF798F901D885ED6D
:10452000009B95ED000B53EC182B51EC100BFCF796
:104530003BF8FCF727F9C4F898001FE0FCF715F9E1
:1045400053EC182BFCF7A2F8A34D41EC100B85EDB2
:10455000000B9FEDA59B53EC192BFCF777F901D8C5
:1045600085ED009B95ED000B53EC182B51EC100BD7
:10457000FCF71AF8FCF706F9C4F89C00B088206133
:1045800076E642F20300ADF8000006208DF804E064
:104590008DF80200ADF80650ADF80810012902D0E0
:1045A000022907D0B9E29FED921B51EC100B53EC9E
:1045B000112B05E09FED8E0B51EC190B53EC102BDA
:1045C000FBF74BFF53EC182BFBF7EEFFFCF7F9F86A
:1045D0004AE07B494FF4FA739842088003D942F2CB
:1045E0001073984200D30B800888C4F8A000BBF178
:1045F000010F14D01E99C90611D41CE077494FF45D
:10460000FA739842088003D942F21073984200D39B
:104610000B800888C4F8A400BBF1020F0BD16949D4
:1046200008806949B1FBF0F0104480B2532103F0D7
:10463000B9FE03F0E1FEB0882062E9E442F207002F
:10464000ADF8000006208DF804E08DF80200ADF80A
:104650000650ADF80810012902D0022903D05CE20F
:10466000ADF80AA059E22298ADF80A0055E2524886
:10467000018000202066012907D01F986063E06E4A
:10468000022814D0032812D012E01E984D4940F0A1
:1046900010006063A1F800A04B49B1FBFAF0104490
:1046A00080B2532103F07EFE03F0A6FEE7E7E56645
:1046B00003F0D0FEACE442F20A00ADF800008DF841
:1046C00002502098CCE642F20F00ADF80000062020
:1046D0008DF804E08DF80200ADF8065034F8A80F0C
:1046E000ADF80800A08ABFE7022100E00121012007
:1046F00004F070F8022104E00221012004F06AF8BD
:104700000121022004F066F82B480188012903D01A
:1047100094F83410C90690D50580606B20F0100025
:104720008DE442F20D00ADF800008DF802501F98A4
:1047300096E630880128BDD140F2DC514846C4F8E5
:10474000C490894502DBC4F8C41003E0012801DCF1
:10475000C4F8C4502849D4F8C40091FBF0F05321A8
:10476000401E03F061FE53E442F21200ADF8000077
:1047700004208DF804E08DF80200ADF80650ADF885
:104780000830CAE11D480026066050463CE000BFE4
:1047900094F83410C90604D50680606B20F0100030
:1047A000606302210120E56604F014F80221084646
:1047B00004F010F82CE40000000000205009002054
:1047C000040000200200002040420F00FC090020ED
:1047D00000007A444800002050000020060000201D
:1047E000F00E0020500F00200000000000003940B3
:1047F000FCA9F1D24D62403F809698009C000020B9
:10480000CC48002606602298CB490880CB49B1FBF2
:10481000F0F0104480B2532103F0C4FD03F0ECFD2E
:1048200003F018FE04E0C3480026066003F00CFE07
:10483000C34801880129AFD0AAE742F21800ADF8B9
:1048400000008DF802508DF803B066E1B9F5007FE5
:1048500089DC42F82900A6E442F22200ADF800000B
:1048600006208DF804E08DF80200ADF80650ADF892
:10487000081032F82100F7E6B248C0F80090B1887D
:10488000416056F8061F81607168C160B1680161BE
:10489000F1684161318A8161D6F81210C161F18AF3
:1048A000016280E4A34900200860A349C4F8C8500D
:1048B0002566A1F800A0A149B1FBFAF0104480B22E
:1048C000532103F06FFD03F097FD9F49022008601C
:1048D0009EA015E09C4900202566C4F8C800086029
:1048E00094ED260AF8EEC00A1FED471A80EE810A01
:1048F00010EE100AFBF77EFF994AC2E9000199A069
:1049000004F0B8FB4FE430B1B0F5F07F06D84FF4B7
:104910001671484304E041F2707001E04FF0FF303F
:10492000C4F88C004846B9F1640F02D96420606570
:1049300001E0C4F85490D4F890109CE442F2820054
:10494000ADF800008DF804E02C988DF80220ADF849
:104950000650ADF80800B8F1FF3F0FD04FF41671C4
:1049600098FBF1F0ADF80A00002001461C9A02EB1A
:104970004002401CD1800228F8DBCEE04FF6FF70E9
:10498000F0E7C4F86090FBF7F0FE53EC182BFBF750
:104990007DFE734D41EC100B85ED000B1FED6E9B02
:1049A00053EC192BFBF752FF01D885ED009B95EDD9
:1049B000000B53EC182B51EC100BFBF7F5FDFBF73C
:1049C000E1FEC4F898006C48F1884FF4FA72018057
:1049D000914203D942F21072914200D302800088C2
:1049E000C4F8A000318901298CD15349088053496A
:1049F000B1FBF0F161480088084480B2532103F014
:104A0000D1FC03F0F9FC3FE442F23000ADF80000C5
:104A10008DF802208DF804E02398ADF80650E8B137
:104A2000ADF808501FED8E0B554853EC102B90ED50
:104A3000000B51EC100BFBF710FD53EC182BFBF7A0
:104A4000B3FDFBF7BEFEADF80A003B480088ADF8A9
:104A50000C001D98ADF80E005FE009E00020ADF8F5
:104A60000800ADF80C00ADF80A00ADF80EC054E037
:104A700042F24200ADF800001A208DF804E08DF8F3
:104A80000200ADF80650ADF808B01FEDA7AB51EC31
:104A9000100B53EC1A2BFBF7E0FC53EC182BFBF735
:104AA00083FDFBF78EFEADF80A00ADF80CA053ECC9
:104AB0001A2B51EC190BFBF7D0FC53EC182BFBF71E
:104AC00073FDFBF77EFEADF80E002298ADF81000E6
:104AD0002798ADF812002C98ADF81400B8F1FF3FFC
:104AE00013D04FF4167198FBF1F000BFADF816002B
:104AF0002098ADF818001F98ADF81A001E9880068F
:104B000006D50220ADF81C0004E04FF6FF70EDE77B
:104B1000ADF81C501D98ADF81E009DF8040000066D
:104B200003D59DF80210891D00E00621684603F0B8
:104B3000ADFE82E59C0000200200002040420F00F4
:104B4000000000209C1B0020500900200D0A4C553D
:104B5000542053746172746564210D0A00000000D2
:104B6000480000200D0A4C55542053746F70706536
:104B700064210D0A0000000004000020FC09002050
:104B800060000020FEE7000008B1202001E04FF4A3
:104B900000100149086070471808024010B512491A
:104BA000124C00220881888020212046FDF701FE5A
:104BB000002240212046FDF7FCFD01224021204635
:104BC000FDF7F7FD012220212046FDF7F2FD084CFC
:104BD000012211022046FDF7ECFD20460122BDE82E
:104BE00010404021FDF7E5BD0E0A00200004024000
:104BF00000080240704700002DE9F0412DED028BC6
:104C000096B0FC48FD4CFE4B8069FB4DA1685A6D87
:104C100035287DD03FDCDFF8E8C3FA4EFA4FDCF8E8
:104C200034C0B2EE048A342873D2DFE810F0850075
:104C3000B303D5017200FC0203031A037200720071
:104C400067038C039B037200720072007200720093
:104C50007200720072007200DE01DF01E001E1010A
:104C600072007200720072007200CB02CD02CF029D
:104C7000D102D302D502DC02E602E902EC027200A4
:104C80000103FF0272007200720072007200720073
:104C900072001403160340F2E526A0F2E525B042A7
:104CA0007ED023DCD44D492895ED000B79D00EDC65
:104CB0003F2877D006DC362875D03D2874D03E28B2
:104CC00027D1DAE2472870D04828F9D1E2E25C28FF
:104CD0006CD006DC51286AD0522869D05B28EFD10D
:104CE00012E3652865D06F28EAD144E340F2071249
:104CF000A5F2071095427DD016DCB5F5827F7AD0FB
:104D00000BDC012D78D0022D77D0A5F5807501E060
:104D10009CE274E0033DD3D11CE1A5F58075053D0F
:104D20006CD0012DCCD127E1072868D2DFE800F054
:104D300067FCFBFAF9F8F70098465FEA8C6001D54A
:104D4000B2A100E0B2A114A804F0A4F9D8F834008C
:104D5000C10607D5010701D5AEA107E0800708D538
:104D6000ADA103E030F0100003D0ACA115A804F011
:104D700091F9D8F83400C1075ED06069012824D0C9
:104D8000D8F86000012822D002283BD0032873D035
:104D9000A3A10EA804F07EF90EAA08A8A16809E054
:104DA00091E280E26BE25AE265E26AE2C9E294E2F1
:104DB00097E2D0E204F06EF99DA202A8A16804F087
:104DC00069F915AB14AA9BA168E09FA1E1E795EDF5
:104DD000000BA1A153EC102B0EA804F05BF90EAA56
:104DE00008A8A16804F056F991A202A8A16804F0ED
:104DF00051F905E0C6E0B3E067E268E2B6E094E0AE
:104E0000308812E095ED000B98A153EC102B0EA802
:104E100004F040F90EAA08A8A16804F03BF984A2A6
:104E200002A8A16804F036F9388815AB14AA94A139
:104E3000009050E00EAA6CE2400876D0606901282C
:104E400004D0D8F8C800012802D013E07EA115E0F4
:104E5000D8F86C00022810D0032823D0D8F86000BE
:104E6000012863D002281FD0032838D08848008842
:104E700001285BD06AA101E031E086A10EA804F010
:104E800009F90EAA08A8A16804F004F968A202A80A
:104E9000A16804F0FFF815AB14AA82A10EA804F0D3
:104EA000F9F8C7E784A1E9E795ED000B6FA153EC92
:104EB000102B0EA804F0EEF80EAA08A8A16804F0C2
:104EC000E9F85BA202A8A16804F0E4F8388815AB01
:104ED00014AA7DA100900EA804F0DCF8AAE77EA138
:104EE0000EA804F0D7F80EAA08A8A16804F0D2F81A
:104EF0004FA202A8A16804F0CDF898ED310AF8EEAF
:104F0000C00A80EE880A10EE100AFBF773FCCDE9A8
:104F1000000114AA74A10EA804F0BCF88AE755E0B9
:104F20004EE047E040E039E032E062E095ED000B12
:104F300049A153EC102B0EA804F0ACF80EAA08A857
:104F4000A16804F0A7F83AA202A8A16804F0A2F8A8
:104F50003088BCE769A208A804F09CF86BA2D8E1ED
:104F600066A208A804F096F86BA2D2E163A208A892
:104F700004F090F86BA2CCE160A208A804F08AF8D3
:104F80006BA2C6E15DA208A804F084F86CA2C0E19F
:104F90005AA208A804F07EF86EA2BAE157A208A8A7
:104FA00004F078F86FA2B4E154A208A804F072F8F3
:104FB00070A2AEE151A208A804F06CF871A2A8E1B9
:104FC0004EA208A804F066F872A2A2E14BA208A8BB
:104FD00004F060F873A29CE1186E012806D0022844
:104FE00005D0032804D0002803D1E3E0E4E0E5E0A5
:104FF000E6E092E1F00E0020600000208800002032
:10500000F80D0020040000200600002087000000AA
:10501000860000004D000000530000004E0000001C
:105020004F757470757420696E616374697665007C
:1050300000000000882025732025732020202D2DBE
:105040002D2D487A000000004443204F66667365AA
:1050500074204572726F72005072657365745631B8
:1050600020252D322E3366560000000050726573E5
:105070006574563220252D322E336656000000000E
:105080008820257320257320202564487A0000009D
:1050900000000020545249473120496E204D6F6472
:1050A00065000000892025732025732020202D2DE8
:1050B0002D2D487A00000000545249473220496E95
:1050C000204D6F6465000000892025732025732022
:1050D000202564487A000000537769746368696E1C
:1050E00067204D6F6465000089202573209E9F20F6
:1050F000202025332E3166487A0000004D656E75FC
:10510000206F7074696F6E73000000005573652026
:10511000776865656C00000031204C43206F757422
:105120007075740032204C4320636F6E66696700AF
:105130003320466565646261636B206D6F64650052
:105140003320416E616C6F67756520696E70757490
:1051500000000000342054726967676572206D6F2B
:105160006465000036204A6F79737469636B206D43
:10517000656E75003720546561636820766F6C74C6
:10518000616765003520576865656C206C6F636BDF
:105190000000000036204272696768746E657373A0
:1051A000000000003720446973702E54696D656FEC
:1051B000757400007AA2A8E07DA2A6E081A2A4E016
:1051C00085A2A2E089A2A0E08CA29EE08FA29CE032
:1051D00092A29AE095A298E099489AA190ED000BCE
:1051E00053EC102B05E09C489CA190ED000B53EC78
:1051F000102B08A803F04EFF63E032889CA184E0E6
:105200003A889FA181E093ED310AF8EEC00A80EE62
:10521000880A10EE100AFBF7EDFA41EC100B9CA186
:1052200053EC102BE5E75FEACC7001D09DA26CE057
:105230009FA26AE05FEACC600AD55FEA0C700CD4EA
:105240005FEA8C700BD45FEA4C703AD59BA25CE0AD
:105250003CF0100035D09EA257E0A1A255E0A4A2D8
:1052600053E0D86E012806D0022802D0032806D0C9
:1052700027E0A3A249E0A6A247E0AAA245E0ADA28A
:1052800043E053EC102BAFA10EA803F003FF0EAACE
:10529000A1683AE053EC102BAEA10EA803F0FAFE81
:1052A0000EAAA16814E0186F012804D0022804D0C7
:1052B000032804D005E0ABA227E0ADA225E0B0A210
:1052C00023E0B2A225E0A7A202E0A9A200E0ACA2DE
:1052D00008A803F0DFFEB0A21BE053EC102B9DA149
:1052E00002E053EC102B97A10EA803F0D3FE0EAAF8
:1052F00008A8A16803F0CEFEABA20AE05FEA8C60CA
:105300001FD43CF0200008D0ABA208A803F0C2FED6
:10531000D7E702A8A16803F0BDFE0021084605F00A
:10532000E3FE08A805F09BFE0221002005F0DCFE4C
:1053300002A805F094FE16B00020BDEC028BBDE87B
:10534000F081A1A2E1E75AB1A3A11BE008A803F0F4
:10535000A1FEA5A2DDE71AB1632AF5DDA5A2F5E756
:10536000A9A2F3E7D3F88C00421C11D04FF41671B8
:1053700090FBF1F205E0A748226950F82220501C6A
:1053800006D0A5A10EA803F085FE0EAAA168DDE750
:10539000A5A2DBE7A8A208A803F07CFEAAA2B8E7B2
:1053A0004F75747075742064697361626C65640014
:1053B000507265736574563120656E61626C656408
:1053C00000000000507265736574563220656E618E
:1053D000626C656400000000537769746368696EED
:1053E0006720656E61626C6564000000536574201F
:1053F0005072657365745631000000005365742067
:105400005072657365745632000000005365742055
:105410004672657175656E6379310000536574205D
:105420004672657175656E6379320000536574204C
:105430005377204672657175656E637900000000D0
:1054400048000020536574566F6C74313A252D3234
:105450002E3366562000000050000020536574561D
:105460006F6C74323A252D322E33665620000000C0
:10547000536574467271313A202564487A200000E1
:10548000536574467271323A202564487A200000D0
:1054900053657453774672713A25332E3166487AD4
:1054A000200000004C6F6F7020636C6F73656400A8
:1054B0004C6F6F70206F70656E656400416E6C6735
:1054C00020496E2068756228436832290000000078
:1054D000416E6C6720496E707574206F66660000BF
:1054E000416E6C6720496E707574204F6E0000002D
:1054F000416E6C6720496E204D6F6E69746F72004B
:105500005472696720312D494E20322D4F550000CD
:105510005472696720312D4F555420322D4F555408
:10552000000000005472696720312D494E20322D51
:105530004F5554005472696720312D4F5554203215
:105540002D494E00537465703A20252D332E326656
:1055500020560000537465703A20252D322E336694
:105560002056000053706565643A206869676800DA
:1055700053706565643A206D656469756D0000005F
:1055800053706565643A206C6F7700008220746FF9
:10559000206368616E6765008220746F20636F6EA0
:1055A0006669726D0000000082206E756D20832098
:1055B00073746F7265000000576865656C206C6FCE
:1055C000636B656400000000576865656C20756E4C
:1055D0006C6F636B656400004272696768746E6526
:1055E0007373203D202564008220746F2061646AFB
:1055F000757374004272696768746E657373203DD9
:105600002031303000000000446973706C617920F3
:105610006F666600A00000204166746572202564F4
:10562000206D696E0000000054696D656F75743AF5
:10563000206E657665720000536176696E67207032
:105640006172616D73202600706F776572696E6795
:1056500020646F776E2E2E2E000000002DE9F041A1
:10566000534C544DA16A002960D0534F012964D096
:1056700000204FF4FA66022966D003295BD14F4916
:10568000086604F0CFFB0020FCF73AFB304606F03A
:10569000ABFAA806016821F0010101604848816A5F
:1056A00021F001018162816AC907FCD1816D21F07D
:1056B00001018165816DC907FCD14248016821F073
:1056C000010101600168C907FCD13E48483001680A
:1056D00021F0010101600168C907FCD13948783027
:1056E000016821F0010101600168C907FCD1364859
:1056F000016821F480010160016821F4001101605A
:1057000072B6016821F001010160016821F0020117
:1057100001602D481030016821F00201016001682C
:1057200021F0040101604FF47A7431E028688005AB
:1057300001D50120A062BDE8F08102F099FD38801A
:1057400004F0A8FA0220F5E72968890505D4064681
:10575000A06204F09FFAA661EDE702F089FD3988A6
:1057600002F040FDB042E6D904F05CFBCC221349C4
:105770001648FAF7B4FD154949F65A203039C1F8F0
:105780004C0102F09FFA0320D4E7204606F02CFAE1
:1057900028688005F9D4BFF34F8F0D4801680D4A82
:1057A00001F4E06111430160BFF34F8F00BFFDE7DB
:1057B000F00E00201008024088000020F80D0020A4
:1057C000006002404064024030380240D80C0020A3
:1057D0000CED00E00400FA052DE9F04F00262DED58
:1057E000108B9FB00DF11E004FF0010901908DF854
:1057F0001C905020FF4C8DF81B608DF81D00FE4F53
:10580000D4F88C00796C81420BDA01F101017964E2
:10581000616DA9B900F101007864A66504F002FB8E
:105820000EE009D1A66504F0FDFA0020FCF768FA45
:10583000786C401C786403E0786A284300D07E646A
:10584000B869B8B102F014FDB98B02F0CBFC47F295
:10585000305188420ED994F85800C00704D104F0A2
:10586000E1FA0020FCF74CFA7E64B86A08B904F04B
:1058700011FABE61B86A50B1C7F8189004F0D5FAB1
:105880000120FCF73DFADD48406801F04FFB04F0D1
:10589000D1F9DB4940B2DFF86CB30870482802DA6E
:1058A00010F1480F03DC02208BF8000009E01428F7
:1058B00002DA10F1140F02DC8BF8009001E08BF893
:1058C0000060386A042801DD012100E0002110F1A8
:1058D000040F01DA012000E000200D1A02F0C8FCDC
:1058E000B98B02F07FFC462800D20025002002F090
:1058F00041FD3E62786A284303D002F0B9FCB883C8
:105900007E64D7F818801E222A20DFF8FCA24FF010
:10591000290E4FF05B0CB8F1290F6FD03CDC4FF033
:1059200020019FEDBACB9FEDBBDB9FEDBC8B9FEDC4
:10593000BDEB9FEDBE9B9FEDBFAB9FEDC0BBB8F134
:10594000280F72D2DFE818F07A00B2024A03380456
:10595000340799076908710071009009000A560A16
:1059600071007100710071007100710071007100AF
:1059700071005F038903A603F103710071007100D8
:10598000710071004F04780464048F04A704C004FC
:105990003D05DE055C06CF064FF6FF7142F282033D
:1059A0004FF41670B8F16F0F74D02FDC42F20D0B6C
:1059B000B8F13F0F6FD014DCB8F1360F6CD009DCB2
:1059C000B8F12A0F69D0B8F1320F67D0B8F1330FB0
:1059D0002BD1EFE3B8F13D0F7AD0B8F13E0FF7D1FC
:1059E000E9E340F2522BB8F15B0F72D007DCB8F15B
:1059F000470F6FD0B8F1480FEAD1F1E3F1E3B8F106
:105A00005C0F68D0B8F1650FE2D1EBE340F2EA3306
:105A1000991CA8F57A7840F2ED394FF47C7B40F27E
:105A2000F13EB8F10B0F8CD200E032E0DFE808F075
:105A3000E0DFDEDDDCDBDAD9D8D7D60094F8580019
:105A4000C00707D1B86A022804D004F0EBF900209F
:105A5000FCF756F9786AC1061BD4800622D504F0FB
:105A600019F940F2E930B8616448406801F05EFA23
:105A70000120FCF745F9606D00EB80004100CAF899
:105A80000C107E64D4F8900048B1C4F8589004F02B
:105A9000CCF98EE1F5E3F5E3F5E3F5E3F5E34FF457
:105AA0007A701BE29FED67FB012D02D06D1C72D056
:105AB000EFE7606B81064FEAC0706DD50028E8D132
:105AC000206E012808D002282ED0032865D0E0E7F8
:105AD000F0E3F0E3F0E3F0E39BF80000022803D0EA
